:0300000002016E8C
:0C016E00787FE4F6D8FD75811E0201B513
:1004FE00434F3A5761726E696E6700434F3A4E6FC3
:10050E00726D6F616C007368616B653A5761726EE4
:10051E00696E67007368616B653A4E6F726D6F61DD
:02052E006C005F
:10056200E4FDFCE4FAFBC3EB9FEE6480F8EA6480EE
:100572009850070BBB00010A80EC0DBD00010CED89
:0505820064784C70DEFE
:010587002251
:10000E001205AD7B007A0079087510167511157DF5
:10001E00171205887B007A0079087D011204877B10
:10002E00007A007908E4F510FD1203AF7F0812057F
:10003E0030EF7022FB7A007908F510FD1203AF75D0
:10004E000FFF7510047511FE7B007A0079081204FB
:10005E00CA12000380227B007A007908E4F510FDB5
:10006E001203AF750FFF7510057511097B007A002D
:10007E0079081204CA1200077F09120530EF702AA0
:10008E00FB7A007908F5107D011203AF750FFF752D
:10009E0010057511147B007A0079081204CA12003B
:1000AE00037FE87E0312056280827B007A00790866
:1000BE00E4F5107D011203AF750FFF751005751174
:1000CE00227B007A0079081204CA12000702003A55
:10044300EF5407FE7401A806088002C333D8FCFEEC
:10045300EF131313541F14601314601C240270232E
:10046300ED6004EE428022EEF4528022ED6004EE51
:10047300429022EEF4529022ED6004EE42A022EE6E
:03048300F452A090
:010486002253
:10053000EF5407FE7401A806088002C333D8FCFEFE
:10054000EF131313541F14600C14600E2402700F69
:10055000E5805EFF22E5905EFF22E5A05EFF227F40
:010560000199
:010561002277
:060364008B1DAC05AA0789
:10036A00E4FBF9AF047D01120443E51D6013AF02FB
:10037A00120530EFA801088002C333D8FC4203807B
:10038A0016AF02120530C3740799FEEFA80608805B
:10039A0002C333D8FC4203AF04E4FD12044309B993
:0403AA0008C1AF03D4
:0103AE00222C
:0602F0008B1BAC05AA0700
:1002F600E4FBE51B6026AF02C00774017E00A8037D
:10030600088005C333CE33CED8F9FFE51CF582EF5E
:10031600558260047D01802D7D008029AF02C007D3
:10032600C374079BFF74017E00A807088005C333CA
:10033600CE33CED8F9FFE51CF582EF558260047DF9
:100346000180027D00D007120443AF047D01120430
:0D03560043AF041D1204430BEB64087095C7
:010363002277
:0803FA008F128E118D108C0F83
:10040200900000E4FFFEFDFCAB12AA11A910A80F98
:10041200D3120158402AC3E5829478E5836480941C
:10042200805003A380F074FF2512F512E51134FF0A
:10043200F511E51034FFF510E50F34FFF50F80C319
:010442002297
:0601FA00AB0CAA0DA90EDA
:100200008B118A1289138D149000021200F7FF7D62
:1002100001120443AB11AA12A9131200DEFF9000D1
:10022000011200F7FD751CF8E4FB1202F0AB11AAF5
:1002300012A9131200DEFF9000011200F7FDE51471
:1002400054F0F51CE4FB1202F0AB11AA12A9131230
:1002500000DEFF9000011200F7FDE514C454F0F534
:100260001CE4FB1202F0AB11AA12A91390000212B7
:0802700000F7FFE4FD02044366
:100278008B158A1689178D189000021200F7FF7DDA
:1002880001120443AB15AA16A9171200DEFF90004D
:10029800011200F7FD751CFAE4FB1202F0AB15AA77
:1002A80016A9171200DEFF9000011200F7FDE518ED
:1002B80054F0F51CE4FB1202F0AB15AA16A91712AC
:1002C80000DEFF9000011200F7FDE518C454F0F5B8
:1002D8001CE4FB1202F0AB15AA16A9179000021233
:0802E80000F7FFE4FD020443EE
:10058800900002ED120136E510120124900001E5F9
:040598001102013615
:100487008B0C8A0D890EED64017037900003ED1215
:1004970001367D301202007D0C1201FA7D01120136
:1004A700FA7F057E007D007C001203FAAB0CAA0DD3
:1004B700A90E7D02120200AB0CAA0DA90E7D061231
:0304C7000200220E
:1003AF008B0C8A0D890E9000031200F76401703ACE
:1003BF00ED1460101460191460222403702CE510E2
:1003CF0024808022AB0CAA0DA90EE5102490801674
:1003DF00AB0CAA0DA90EE5102488800AAB0CAA0D50
:0B03EF00A90EE5102498FD1202002268
:0604CA008B0C8A0D890E67
:1004D000850F12851013851114AB12AA13A91412DB
:1004E00000DE60190514E5147002051314F91200FA
:0D04F000DEFDAB0CAA0DA90E12027880DC17
:0104FD0022DC
:0305BD00011E001C
:1005AD00758901758AFE758CFFD28CD2A9D2AF22C6
:04000300751E012243
:04000700E4F51E22DC
:03000B0002059C4F
:10059C00C0E0758AFE758CFFE51E6002B295D0E056
:0105AC00321C
:10017A0002000EE493A3F8E493A34003F68001F28D
:10018A0008DFF48029E493A3F85407240CC8C33386
:10019A00C4540F4420C8834004F456800146F6DF55
:1001AA00E4800B01020408102040809005BDE47E23
:1001BA00019360BCA3FF543F30E509541FFEE4934A
:1001CA00A360010ECF54C025E060A840B8E493A311
:1001DA00FAE493A3F8E493A3C8C582C8CAC583CA3C
:1001EA00F0A3C8C582C8CAC583CADFE9DEE780BEF4
:0105C000003A
:1000DE00BB010689828A83E0225002E722BBFE0220
:0900EE00E32289828A83E4932253
:1000F700BB010CE58229F582E5833AF583E02250BE
:1001070006E92582F8E622BBFE06E92582F8E22207
:0D011700E58229F582E5833AF583E4932221
:10012400BB010689828A83F0225002F722BBFE01BA
:02013400F322B4
:10013600F8BB010DE58229F582E5833AF583E8F0FF
:10014600225006E92582C8F622BBFE05E92582C8AB
:02015600F22293
:10015800EB9FF5F0EA9E42F0E99D42F0EC6480C81E
:0601680064809845F022BE
:00000001FF
