:0300000002016E8C
:0C016E00787FE4F6D8FD7581330201B5FE
:10062500434F3A5761726E696E6700434F3A4E6F9A
:10063500726D6F616C007368616B653A5761726EBC
:10064500696E67007368616B653A4E6F726D6F61B5
:020655006C0037
:1006B900E4FDFCE4FAFBC3EB9FEE6480F8EA648096
:1006C9009850070BBB00010A80EC0DBD00010CED31
:0506D90064784C70DEA6
:0106DE0022F9
:10000E001207047B007A0079087510167511157D9C
:10001E00171206DF7B007A0079087D011205397B05
:10002E00007A007908E4F510FD1204617F081206CB
:10003E0057EF7022FB7A007908F510FD12046175F6
:10004E000FFF7510067511257B007A0079081205D1
:10005E00BE12000380227B007A007908E4F510FDC1
:10006E00120461750FFF7510067511307B007A0052
:10007E0079081205BE1200077F09120657EF702A83
:10008E00FB7A007908F5107D01120461750FFF757A
:10009E00100675113B7B007A0079081205BE12001E
:1000AE00037FE87E031206B980827B007A0079080E
:1000BE00E4F5107D01120461750FFF7510067511C0
:1000CE00497B007A0079081205BE12000702003A39
:1004F500EF5407FE7401A806088002C333D8FCFE3A
:10050500EF131313541F14601314601C240270237B
:10051500ED6004EE428022EEF4528022ED6004EE9E
:10052500429022EEF4529022ED6004EE42A022EEBB
:03053500F452A0DD
:0105380022A0
:10065700EF5407FE7401A806088002C333D8FCFED6
:10066700EF131313541F14600C14600E2402700F41
:10067700E5805EFF22E5905EFF22E5A05EFF227F18
:010687000171
:01068800224F
:060416008B32AC05AA07C1
:10041C00E4FBF9AF047D011204F5E5326013AF0281
:10042C00120657EFA801088002C333D8FC420380A0
:10043C0016AF02120657C3740799FEEFA806088080
:10044C0002C333D8FC4203AF04E4FD1204F509B92E
:04045C0008C1AF0321
:010460002279
:0602F0008B1BAC05AA0700
:1002F600E4FBE51B6026AF02C00774017E00A8037D
:10030600088005C333CE33CED8F9FFE51CF582EF5E
:10031600558260047D01802D7D008029AF02C007D3
:10032600C374079BFF74017E00A807088005C333CA
:10033600CE33CED8F9FFE51CF582EF558260047DF9
:100346000180027D00D0071204F5AF047D0112047E
:0D035600F5AF041D1204F50BEB6408709563
:010363002277
:0804AC008F128E118D108C0FD0
:1004B400900000E4FFFEFDFCAB12AA11A910A80FE6
:1004C400D3120158402AC3E5829478E5836480946A
:1004D400805003A380F074FF2512F512E51134FF58
:1004E400F511E51034FFF510E50F34FFF50F80C367
:0104F40022E5
:0601FA00AB0CAA0DA90EDA
:100200008B118A1289138D149000021200F7FF7D62
:10021000011204F5AB11AA12A9131200DEFF90001F
:10022000011200F7FD751CF8E4FB1202F0AB11AAF5
:1002300012A9131200DEFF9000011200F7FDE51471
:1002400054F0F51CE4FB1202F0AB11AA12A9131230
:1002500000DEFF9000011200F7FDE514C454F0F534
:100260001CE4FB1202F0AB11AA12A91390000212B7
:0802700000F7FFE4FD0204F5B4
:100278008B158A1689178D189000021200F7FF7DDA
:10028800011204F5AB15AA16A9171200DEFF90009B
:10029800011200F7FD751CFAE4FB1202F0AB15AA77
:1002A80016A9171200DEFF9000011200F7FDE518ED
:1002B80054F0F51CE4FB1202F0AB15AA16A91712AC
:1002C80000DEFF9000011200F7FDE518C454F0F5B8
:1002D8001CE4FB1202F0AB15AA16A9179000021233
:0802E80000F7FFE4FD0204F53C
:1006DF00900002ED120136E510120124900001E5A1
:0406EF0011020136BD
:100539008B0C8A0D890EED64017037900003ED1262
:1005490001367D301202007D0C1201FA7D01120183
:10055900FA7F057E007D007C001204ACAB0CAA0D6D
:10056900A90E7D02120200AB0CAA0DA90E7D06127E
:030579000200225B
:100461008B0C8A0D890E9000031200F76401703A1B
:10047100ED1460101460191460222403702CE5102F
:1004810024808022AB0CAA0DA90EE51024908016C1
:10049100AB0CAA0DA90EE5102488800AAB0CAA0D9D
:0B04A100A90EE5102498FD12020022B5
:0605BE008B0C8A0D890E72
:1005C400850F12851013851114AB12AA13A91412E6
:1005D40000DE60190514E5147002051314F9120005
:0D05E400DEFDAB0CAA0DA90E12027880DC22
:0105F10022E7
:03071400013300AE
:10070400758901758AFE758CFFD28CD2A9D2AF226D
:04000300753301222E
:04000700E4F53322C7
:03000B000206F3F7
:1006F300C0E0758AFE758CFFE5336002B295D0E0E9
:0107030032C3
:1005F2008B1D8A1E891FED120124AB1DAA1EA91F85
:10060200900001E5211201361200DEFF7D01120485
:10061200F5AB1DAA1EA91F9000011200F7FF7D0174
:030622000204F5DA
:10057C008B2C8A2D892E1200DEFF7D011204F5AB27
:10058C002CAA2DA92E9000011200F7FF7D01120458
:10059C00F5AB2CAA2DA92E1200DEFFE4FD1204F5FA
:1005AC00AB2CAA2DA92E9000011200F7FFE4FD023E
:0205BC0004F544
:100689008B2F8A3089311200DEFFE4FD1204F5ABAD
:100699002FAA30A9319000011200F7FF7D01120441
:1006A900F5AB2FAA30A9311200DEFF7D010204F556
:0803C2008B228A2389248D257A
:1003CA00E4F526AB22AA23A9241200DEFFE5253094
:1003DA00E7047D0180027D001204F5AB22AA23A95D
:1003EA00249000011200F7FF7D011204F5AB22AA46
:1003FA0023A9241200DEFFE4FD1204F5E52525E019
:0B040A00F5250526E526C3940840B840
:0104150022C4
:060364008B278A2889297D
:10036A00E4F52AF52BAB27AA28A9291200DEFF7D7E
:10037A00011204F5AB27AA28A9299000011200F757
:10038A00FF7D011204F5AB27AA28A9291200DEFF76
:10039A00120657E52A25E04FF52AAB27AA28A929EC
:1003AA009000011200F7FFE4FD1204F5052BE52B7E
:0703BA00C3940840B0AF2A14
:0103C1002219
:10017A0002000EE493A3F8E493A34003F68001F28D
:10018A0008DFF48029E493A3F85407240CC8C33386
:10019A00C4540F4420C8834004F456800146F6DF55
:1001AA00E4800B0102040810204080900714E47ECA
:1001BA00019360BCA3FF543F30E509541FFEE4934A
:1001CA00A360010ECF54C025E060A840B8E493A311
:1001DA00FAE493A3F8E493A3C8C582C8CAC583CA3C
:1001EA00F0A3C8C582C8CAC583CADFE9DEE780BEF4
:0107170000E1
:1000DE00BB010689828A83E0225002E722BBFE0220
:0900EE00E32289828A83E4932253
:1000F700BB010CE58229F582E5833AF583E02250BE
:1001070006E92582F8E622BBFE06E92582F8E22207
:0D011700E58229F582E5833AF583E4932221
:10012400BB010689828A83F0225002F722BBFE01BA
:02013400F322B4
:10013600F8BB010DE58229F582E5833AF583E8F0FF
:10014600225006E92582C8F622BBFE05E92582C8AB
:02015600F22293
:10015800EB9FF5F0EA9E42F0E99D42F0EC6480C81E
:0601680064809845F022BE
:00000001FF
