:0300000002009E5D
:0C009E00787FE4F6D8FD75811E0200E5B5
:1004FF005761726E696E67004E6F726D6F616C003F
:1001A80012050F7B007A0079087510167511157DF8
:1001B800171204DA7B007A0079087D011204317B7A
:1001C800007A007908E4F510FD1203597F0812043B
:1001D800A8EF7022FB7A007908F510FD1203597513
:1001E8000FFF7510047511FF7B007A00790812045F
:1001F8007412000380D67B007A007908E4F510FDBC
:10020800120359750FFF7510057511077B007A00E9
:0A021800790812047412000780B286
:1003ED00EF5407FE7401A806088002C333D8FCFE43
:1003FD00EF131313541F14601314601C2402702385
:10040D00ED6004EE428022EEF4528022ED6004EEA7
:10041D00429022EEF4529022ED6004EE42A022EEC4
:03042D00F452A0E6
:0104300022A9
:1004A800EF5407FE7401A806088002C333D8FCFE87
:1004B800EF131313541F14600C14600E2402700FF2
:1004C800E5805EFF22E5905EFF22E5A05EFF227FC9
:0104D8000122
:0104D9002200
:06030E008B1DAC05AA07DF
:10031400E4FBF9AF047D011203EDE51D6013AF02A8
:100324001204A8EFA801088002C333D8FC4203805A
:1003340016AF021204A8C3740799FEEFA80608803A
:1003440002C333D8FC4203AF04E4FD1203ED09B940
:0403540008C1AF032A
:010358002282
:06029A008B1BAC05AA0756
:1002A000E4FBE51B6026AF02C00774017E00A803D3
:1002B000088005C333CE33CED8F9FFE51CF582EFB5
:1002C000558260047D01802D7D008029AF02C0072A
:1002D000C374079BFF74017E00A807088005C33321
:1002E000CE33CED8F9FFE51CF582EF558260047D50
:1002F0000180027D00D0071203EDAF047D011203DF
:0D030000EDAF041D1203ED0BEB64087095CA
:01030D0022CD
:0803A4008F128E118D108C0FD9
:1003AC00900000E4FFFEFDFCAB12AA11A910A80FEF
:1003BC00D3120088402AC3E5829478E58364809444
:1003CC00805003A380F074FF2512F512E51134FF61
:1003DC00F511E51034FFF510E50F34FFF50F80C370
:0103EC0022EE
:06012A00AB0CAA0DA90EAA
:100130008B118A1289138D14900002120027FF7D03
:10014000011203EDAB11AA12A91312000EFF9000C9
:1001500001120027FD751CF8E4FB12029AAB11AAEC
:1001600012A91312000EFF900001120027FDE514E2
:1001700054F0F51CE4FB12029AAB11AA12A9131257
:10018000000EFF900001120027FDE514C454F0F5A5
:100190001CE4FB12029AAB11AA12A91390000212DE
:0801A0000027FFE4FD0203ED5E
:100222008B158A1689178D18900002120027FF7D00
:10023200011203EDAB15AA16A91712000EFF9000CA
:1002420001120027FD751CFAE4FB12029AAB15AAF3
:1002520016A91712000EFF900001120027FDE518E3
:1002620054F0F51CE4FB12029AAB15AA16A9171258
:10027200000EFF900001120027FDE518C454F0F5AE
:100282001CE4FB12029AAB15AA16A91790000212DF
:080292000027FFE4FD0203ED6B
:1004DA00900002ED120066E510120054900001E54A
:0404EA001102006695
:100431008B0C8A0D890EED64017037900003ED126B
:1004410000667D301201307D0C12012A7D011201FE
:100451002A7F057E007D007C001203A4AB0CAA0D4F
:10046100A90E7D02120130AB0CAA0DA90E7D061258
:0304710001302235
:100359008B0C8A0D890E9000031200276401703AF4
:10036900ED1460101460191460222403702CE51038
:1003790024808022AB0CAA0DA90EE51024908016CA
:10038900AB0CAA0DA90EE5102488800AAB0CAA0DA6
:0B039900A90EE5102498FD120130228F
:060474008B0C8A0D890EBD
:10047A00850F12851013851114AB12AA13A9141231
:10048A00000E60190514E5147002051314F9120020
:0D049A000EFDAB0CAA0DA90E12022280DC93
:0104A7002232
:03051F00011E00BA
:10050F00758901758AFE758CFFD28CD2A9D2AF2264
:04000300751E012243
:04000700E4F51E22DC
:03000B000204EEFE
:1004EE00C0E0758AFE758CFFE51E6002B295D0E005
:0104FE0032CB
:1000AA000201A8E493A3F8E493A34003F68001F2C3
:1000BA0008DFF48029E493A3F85407240CC8C33357
:1000CA00C4540F4420C8834004F456800146F6DF26
:1000DA00E4800B010204081020408090051FE47E92
:1000EA00019360BCA3FF543F30E509541FFEE4931B
:1000FA00A360010ECF54C025E060A840B8E493A3E2
:10010A00FAE493A3F8E493A3C8C582C8CAC583CA0C
:10011A00F0A3C8C582C8CAC583CADFE9DEE780BEC4
:0105220000D8
:10000E00BB010689828A83E0225002E722BBFE02F0
:09001E00E32289828A83E4932223
:10002700BB010CE58229F582E5833AF583E022508E
:1000370006E92582F8E622BBFE06E92582F8E222D8
:0D004700E58229F582E5833AF583E49322F2
:10005400BB010689828A83F0225002F722BBFE018B
:02006400F32285
:10006600F8BB010DE58229F582E5833AF583E8F0D0
:10007600225006E92582C8F622BBFE05E92582C87C
:02008600F22264
:10008800EB9FF5F0EA9E42F0E99D42F0EC6480C8EF
:0600980064809845F0228F
:00000001FF
